{
  "contractName": "Citizenship",
  "abi": [
    {
      "constant": true,
      "inputs": [
        {
          "name": "",
          "type": "uint256"
        }
      ],
      "name": "citizens",
      "outputs": [
        {
          "name": "id",
          "type": "uint256"
        },
        {
          "name": "firstName",
          "type": "string"
        },
        {
          "name": "lastName",
          "type": "string"
        },
        {
          "name": "fathersname",
          "type": "string"
        },
        {
          "name": "age",
          "type": "uint256"
        },
        {
          "name": "gender",
          "type": "string"
        },
        {
          "name": "votedorNot",
          "type": "bool"
        },
        {
          "name": "house_address",
          "type": "string"
        }
      ],
      "payable": false,
      "stateMutability": "view",
      "type": "function",
      "signature": "0x09a34f00"
    },
    {
      "constant": true,
      "inputs": [],
      "name": "citizenCount",
      "outputs": [
        {
          "name": "",
          "type": "uint256"
        }
      ],
      "payable": false,
      "stateMutability": "view",
      "type": "function",
      "signature": "0x5b4c777d"
    },
    {
      "inputs": [],
      "payable": false,
      "stateMutability": "nonpayable",
      "type": "constructor",
      "signature": "constructor"
    },
    {
      "constant": false,
      "inputs": [
        {
          "name": "_fn",
          "type": "string"
        },
        {
          "name": "_ln",
          "type": "string"
        },
        {
          "name": "_father",
          "type": "string"
        },
        {
          "name": "_age",
          "type": "uint256"
        },
        {
          "name": "_gender",
          "type": "string"
        },
        {
          "name": "_ha",
          "type": "string"
        }
      ],
      "name": "addCitizen",
      "outputs": [],
      "payable": false,
      "stateMutability": "nonpayable",
      "type": "function",
      "signature": "0xc471933e"
    }
  ],
  "bytecode": "0x608060405234801561001057600080fd5b50610a83806100206000396000f3fe6080604052600436106100565763ffffffff7c010000000000000000000000000000000000000000000000000000000060003504166309a34f00811461005b5780635b4c777d146102ae578063c471933e146102d5575b600080fd5b34801561006757600080fd5b506100856004803603602081101561007e57600080fd5b50356105ae565b6040518089815260200180602001806020018060200188815260200180602001871515151581526020018060200186810386528d818151815260200191508051906020019080838360005b838110156100e85781810151838201526020016100d0565b50505050905090810190601f1680156101155780820380516001836020036101000a031916815260200191505b5086810385528c5181528c516020918201918e019080838360005b83811015610148578181015183820152602001610130565b50505050905090810190601f1680156101755780820380516001836020036101000a031916815260200191505b5086810384528b5181528b516020918201918d019080838360005b838110156101a8578181015183820152602001610190565b50505050905090810190601f1680156101d55780820380516001836020036101000a031916815260200191505b5086810383528951815289516020918201918b019080838360005b838110156102085781810151838201526020016101f0565b50505050905090810190601f1680156102355780820380516001836020036101000a031916815260200191505b50868103825287518152875160209182019189019080838360005b83811015610268578181015183820152602001610250565b50505050905090810190601f1680156102955780820380516001836020036101000a031916815260200191505b509d505050505050505050505050505060405180910390f35b3480156102ba57600080fd5b506102c36108a8565b60408051918252519081900360200190f35b3480156102e157600080fd5b506105ac600480360360c08110156102f857600080fd5b81019060208101813564010000000081111561031357600080fd5b82018360208201111561032557600080fd5b8035906020019184600183028401116401000000008311171561034757600080fd5b91908080601f016020809104026020016040519081016040528093929190818152602001838380828437600092019190915250929594936020810193503591505064010000000081111561039a57600080fd5b8201836020820111156103ac57600080fd5b803590602001918460018302840111640100000000831117156103ce57600080fd5b91908080601f016020809104026020016040519081016040528093929190818152602001838380828437600092019190915250929594936020810193503591505064010000000081111561042157600080fd5b82018360208201111561043357600080fd5b8035906020019184600183028401116401000000008311171561045557600080fd5b91908080601f016020809104026020016040519081016040528093929190818152602001838380828437600092019190915250929584359590949093506040810192506020013590506401000000008111156104b057600080fd5b8201836020820111156104c257600080fd5b803590602001918460018302840111640100000000831117156104e457600080fd5b91908080601f016020809104026020016040519081016040528093929190818152602001838380828437600092019190915250929594936020810193503591505064010000000081111561053757600080fd5b82018360208201111561054957600080fd5b8035906020019184600183028401116401000000008311171561056b57600080fd5b91908080601f0160208091040260200160405190810160405280939291908181526020018383808284376000920191909152509295506108ae945050505050565b005b600160208181526000928352604092839020805481840180548651600296821615610100026000190190911695909504601f8101859004850286018501909652858552909491939290919083018282801561064a5780601f1061061f5761010080835404028352916020019161064a565b820191906000526020600020905b81548152906001019060200180831161062d57829003601f168201915b50505060028085018054604080516020601f60001961010060018716150201909416959095049283018590048502810185019091528181529596959450909250908301828280156106dc5780601f106106b1576101008083540402835291602001916106dc565b820191906000526020600020905b8154815290600101906020018083116106bf57829003601f168201915b5050505060038301805460408051602060026001851615610100026000190190941693909304601f810184900484028201840190925281815294959493509083018282801561076c5780601f106107415761010080835404028352916020019161076c565b820191906000526020600020905b81548152906001019060200180831161074f57829003601f168201915b50505050600483015460058401805460408051602060026001851615610100026000190190941693909304601f810184900484028201840190925281815295969395939450908301828280156108035780601f106107d857610100808354040283529160200191610803565b820191906000526020600020905b8154815290600101906020018083116107e657829003601f168201915b50505050600683015460078401805460408051602060026101006001861615026000190190941693909304601f8101849004840282018401909252818152959660ff909416959394509083018282801561089e5780601f106108735761010080835404028352916020019161089e565b820191906000526020600020905b81548152906001019060200180831161088157829003601f168201915b5050505050905088565b60005481565b600080546001908101808355604080516101008101825282815260208082018c81528284018c9052606083018b9052608083018a905260a0830189905260c0830187905260e08301889052938652848152919094208451815591518051929361091f939085019291909101906109bc565b506040820151805161093b9160028401916020909101906109bc565b50606082015180516109579160038401916020909101906109bc565b506080820151600482015560a0820151805161097d9160058401916020909101906109bc565b5060c082015160068201805460ff191691151591909117905560e082015180516109b19160078401916020909101906109bc565b505050505050505050565b828054600181600116156101000203166002900490600052602060002090601f016020900481019282601f106109fd57805160ff1916838001178555610a2a565b82800160010185558215610a2a579182015b82811115610a2a578251825591602001919060010190610a0f565b50610a36929150610a3a565b5090565b610a5491905b80821115610a365760008155600101610a40565b9056fea165627a7a72305820874d121559ed5f2025a32ca8f9640ff6e0536f8d4d47db1617d306b7c5c05f800029",
  "source": "pragma solidity ^0.5.0;\ncontract Citizenship {\n    uint public citizenCount;\n    struct Citizen{\n        uint id;\n        string firstName;\n        string lastName;\n        string fathersname;\n        uint age;\n        string gender;\n        bool votedorNot;\n        string house_address;\n    }\n    mapping(uint => Citizen) public citizens;\n    \n    constructor() public {\n        \n    }\n    function addCitizen (string memory _fn,string memory _ln,string memory _father,uint _age,string memory _gender,string memory _ha) \n    public {\n        citizenCount ++;\n        citizens[citizenCount] = Citizen(citizenCount, _fn,_ln,_father,_age,_gender,false,_ha);        \n    }\n}\n",
  "sourcePath": "/Users/ajayrwarrier/Desktop/Citizenship/contracts/Citizenship.sol",
  "compiler": {
    "name": "solc",
    "version": "0.5.0+commit.1d4f565a.Emscripten.clang"
  },
  "schemaVersion": "3.0.2",
  "updatedAt": "2019-03-17T09:23:24.848Z",
  "devdoc": {
    "methods": {}
  },
  "userdoc": {
    "methods": {}
  }
}